{
  "_format": "hh-sol-artifact-1",
  "contractName": "VotingSystem",
  "sourceName": "contracts/Voting.sol",
  "abi": [
    {
      "inputs": [],
      "stateMutability": "nonpayable",
      "type": "constructor"
    },
    {
      "anonymous": false,
      "inputs": [
        {
          "indexed": false,
          "internalType": "address",
          "name": "newAdmin",
          "type": "address"
        }
      ],
      "name": "AdminSet",
      "type": "event"
    },
    {
      "anonymous": false,
      "inputs": [
        {
          "indexed": false,
          "internalType": "uint256",
          "name": "sessionId",
          "type": "uint256"
        }
      ],
      "name": "ResultsReleased",
      "type": "event"
    },
    {
      "anonymous": false,
      "inputs": [
        {
          "indexed": false,
          "internalType": "uint256",
          "name": "sessionId",
          "type": "uint256"
        },
        {
          "indexed": false,
          "internalType": "string",
          "name": "title",
          "type": "string"
        },
        {
          "indexed": false,
          "internalType": "uint256",
          "name": "endTime",
          "type": "uint256"
        }
      ],
      "name": "SessionCreated",
      "type": "event"
    },
    {
      "anonymous": false,
      "inputs": [
        {
          "indexed": false,
          "internalType": "uint256",
          "name": "sessionId",
          "type": "uint256"
        }
      ],
      "name": "SessionEnded",
      "type": "event"
    },
    {
      "anonymous": false,
      "inputs": [
        {
          "indexed": false,
          "internalType": "uint256",
          "name": "sessionId",
          "type": "uint256"
        },
        {
          "indexed": false,
          "internalType": "uint256",
          "name": "candidateIndex",
          "type": "uint256"
        },
        {
          "indexed": false,
          "internalType": "address",
          "name": "voter",
          "type": "address"
        }
      ],
      "name": "Voted",
      "type": "event"
    },
    {
      "inputs": [],
      "name": "admin",
      "outputs": [
        {
          "internalType": "address",
          "name": "",
          "type": "address"
        }
      ],
      "stateMutability": "view",
      "type": "function"
    },
    {
      "inputs": [
        {
          "internalType": "string",
          "name": "_title",
          "type": "string"
        },
        {
          "internalType": "string[]",
          "name": "candidateNames",
          "type": "string[]"
        },
        {
          "internalType": "uint256",
          "name": "durationInSeconds",
          "type": "uint256"
        }
      ],
      "name": "createSession",
      "outputs": [],
      "stateMutability": "nonpayable",
      "type": "function"
    },
    {
      "inputs": [
        {
          "internalType": "uint256",
          "name": "sessionId",
          "type": "uint256"
        }
      ],
      "name": "endSession",
      "outputs": [],
      "stateMutability": "nonpayable",
      "type": "function"
    },
    {
      "inputs": [
        {
          "internalType": "uint256",
          "name": "sessionId",
          "type": "uint256"
        }
      ],
      "name": "getCandidates",
      "outputs": [
        {
          "components": [
            {
              "internalType": "string",
              "name": "name",
              "type": "string"
            },
            {
              "internalType": "uint256",
              "name": "voteCount",
              "type": "uint256"
            }
          ],
          "internalType": "struct VotingSystem.Candidate[]",
          "name": "",
          "type": "tuple[]"
        }
      ],
      "stateMutability": "view",
      "type": "function"
    },
    {
      "inputs": [
        {
          "internalType": "uint256",
          "name": "sessionId",
          "type": "uint256"
        },
        {
          "internalType": "address",
          "name": "user",
          "type": "address"
        }
      ],
      "name": "hasVoted",
      "outputs": [
        {
          "internalType": "bool",
          "name": "",
          "type": "bool"
        }
      ],
      "stateMutability": "view",
      "type": "function"
    },
    {
      "inputs": [
        {
          "internalType": "address",
          "name": "to",
          "type": "address"
        },
        {
          "internalType": "uint256",
          "name": "sessionId",
          "type": "uint256"
        }
      ],
      "name": "mintVotingNFT",
      "outputs": [],
      "stateMutability": "nonpayable",
      "type": "function"
    },
    {
      "inputs": [
        {
          "internalType": "uint256",
          "name": "sessionId",
          "type": "uint256"
        }
      ],
      "name": "releaseResults",
      "outputs": [],
      "stateMutability": "nonpayable",
      "type": "function"
    },
    {
      "inputs": [],
      "name": "sessionCounter",
      "outputs": [
        {
          "internalType": "uint256",
          "name": "",
          "type": "uint256"
        }
      ],
      "stateMutability": "view",
      "type": "function"
    },
    {
      "inputs": [
        {
          "internalType": "uint256",
          "name": "",
          "type": "uint256"
        }
      ],
      "name": "sessions",
      "outputs": [
        {
          "internalType": "uint256",
          "name": "id",
          "type": "uint256"
        },
        {
          "internalType": "string",
          "name": "title",
          "type": "string"
        },
        {
          "internalType": "uint256",
          "name": "endTime",
          "type": "uint256"
        },
        {
          "internalType": "bool",
          "name": "isActive",
          "type": "bool"
        },
        {
          "internalType": "bool",
          "name": "resultsReleased",
          "type": "bool"
        }
      ],
      "stateMutability": "view",
      "type": "function"
    },
    {
      "inputs": [
        {
          "internalType": "address",
          "name": "_admin",
          "type": "address"
        }
      ],
      "name": "setAdmin",
      "outputs": [],
      "stateMutability": "nonpayable",
      "type": "function"
    },
    {
      "inputs": [
        {
          "internalType": "address",
          "name": "_votingNFT",
          "type": "address"
        }
      ],
      "name": "setVotingNFT",
      "outputs": [],
      "stateMutability": "nonpayable",
      "type": "function"
    },
    {
      "inputs": [
        {
          "internalType": "uint256",
          "name": "sessionId",
          "type": "uint256"
        },
        {
          "internalType": "uint256",
          "name": "candidateIndex",
          "type": "uint256"
        }
      ],
      "name": "vote",
      "outputs": [],
      "stateMutability": "nonpayable",
      "type": "function"
    },
    {
      "inputs": [],
      "name": "votingNFT",
      "outputs": [
        {
          "internalType": "address",
          "name": "",
          "type": "address"
        }
      ],
      "stateMutability": "view",
      "type": "function"
    }
  ],
  "bytecode": "0x6080604052348015600f57600080fd5b50600080546001600160a01b03191690556113338061002f6000396000f3fe608060405234801561001057600080fd5b50600436106100cf5760003560e01c806374ea42531161008c578063b384abef11610066578063b384abef146101b8578063bc1556d4146101cb578063cc64e2af146101f6578063f851a4401461020d57600080fd5b806374ea42531461016e57806383c4b7a314610181578063a2f49afb146101a557600080fd5b806326cc5583146100d45780632d075ea8146100e95780633bafd9a0146100fc5780633e39a7a51461010f5780634385963214610138578063704b6c021461015b575b600080fd5b6100e76100e2366004610d35565b610220565b005b6100e76100f7366004610d66565b6102f9565b6100e761010a366004610d35565b61039b565b61012261011d366004610d35565b610472565b60405161012f9190610dd0565b60405180910390f35b61014b610146366004610e49565b6105f0565b604051901515815260200161012f565b6100e7610169366004610d66565b610620565b6100e761017c366004610f30565b6106c1565b61019461018f366004610d35565b610853565b60405161012f959493929190611038565b6100e76101b3366004611070565b610911565b6100e76101c636600461109c565b610a32565b6002546101de906001600160a01b031681565b6040516001600160a01b03909116815260200161012f565b6101ff60015481565b60405190815260200161012f565b6000546101de906001600160a01b031681565b6000546001600160a01b031633146102535760405162461bcd60e51b815260040161024a906110be565b60405180910390fd5b60008181526003602081905260409091209081015460ff166102af5760405162461bcd60e51b815260206004820152601560248201527414d95cdcda5bdb88185b1c9958591e48195b991959605a1b604482015260640161024a565b60038101805460ff191690554260028201556040518281527f6fec84c120bd2f6ca3672e03149381cb6bd1bf38d8442f598e8fa9820a53991e906020015b60405180910390a15050565b6000546001600160a01b031633146103235760405162461bcd60e51b815260040161024a906110be565b6001600160a01b0381166103795760405162461bcd60e51b815260206004820152601c60248201527f496e76616c6964204e465420636f6e7472616374206164647265737300000000604482015260640161024a565b600280546001600160a01b0319166001600160a01b0392909216919091179055565b6000546001600160a01b031633146103c55760405162461bcd60e51b815260040161024a906110be565b600081815260036020819052604090912090810154610100900460ff161561042f5760405162461bcd60e51b815260206004820152601860248201527f526573756c747320616c72656164792072656c65617365640000000000000000604482015260640161024a565b60038101805461ff0019166101001790556040517f610cc35e8bc32442361a4a35f56e262bdc568a35f1a955a50bd61b05714ce82d906102ed9084815260200190565b600081815260036020526040812060048101546060929067ffffffffffffffff8111156104a1576104a1610e79565b6040519080825280602002602001820160405280156104e757816020015b6040805180820190915260608152600060208201528152602001906001900390816104bf5790505b50905060005b60048301548110156105e85782600401818154811061050e5761050e611100565b906000526020600020906002020160405180604001604052908160008201805461053790611116565b80601f016020809104026020016040519081016040528092919081815260200182805461056390611116565b80156105b05780601f10610585576101008083540402835291602001916105b0565b820191906000526020600020905b81548152906001019060200180831161059357829003601f168201915b505050505081526020016001820154815250508282815181106105d5576105d5611100565b60209081029190910101526001016104ed565b509392505050565b60008281526003602090815260408083206001600160a01b038516845260050190915290205460ff165b92915050565b6000546001600160a01b03161561066d5760405162461bcd60e51b815260206004820152601160248201527010591b5a5b88185b1c9958591e481cd95d607a1b604482015260640161024a565b600080546001600160a01b0319166001600160a01b0383169081179091556040519081527f8fe72c3e0020beb3234e76ae6676fa576fbfcae600af1c4fea44784cf0db329c9060200160405180910390a150565b6000546001600160a01b031633146106eb5760405162461bcd60e51b815260040161024a906110be565b600082511161073c5760405162461bcd60e51b815260206004820152601b60248201527f4e656564206174206c65617374206f6e652063616e6469646174650000000000604482015260640161024a565b60018054600081815260036020526040902090815590810161075e858261119f565b506107698242611274565b600282015560038101805460ff1916600117905560005b83518110156107f6578160040160405180604001604052808684815181106107aa576107aa611100565b602090810291909101810151825260009181018290528354600181018555938252902081519192600202019081906107e2908261119f565b506020919091015160019182015501610780565b507fbaaf3e7e7220f3f189df779cc40f886caf966b5143cbe122de9181a26a68152060015485836002015460405161083093929190611287565b60405180910390a160018054906000610848836112b0565b919050555050505050565b6003602052600090815260409020805460018201805491929161087590611116565b80601f01602080910402602001604051908101604052809291908181526020018280546108a190611116565b80156108ee5780601f106108c3576101008083540402835291602001916108ee565b820191906000526020600020905b8154815290600101906020018083116108d157829003601f168201915b50505050600283015460039093015491929160ff80821692506101009091041685565b6000546001600160a01b0316331461093b5760405162461bcd60e51b815260040161024a906110be565b6002546001600160a01b03166109935760405162461bcd60e51b815260206004820152601b60248201527f566f74696e67204e465420636f6e7472616374206e6f74207365740000000000604482015260640161024a565b6002546001546001600160a01b03909116906342842e0e9060009085906109bd86620f42406112c9565b6109c79190611274565b6040516001600160e01b031960e086901b1681526001600160a01b0393841660048201529290911660248301526044820152606401600060405180830381600087803b158015610a1657600080fd5b505af1158015610a2a573d6000803e3d6000fd5b505050505050565b60008281526003602052604090206002546001600160a01b031615801590610aee575060025460015433916001600160a01b031690636352211e90610a7a87620f42406112c9565b610a849190611274565b6040518263ffffffff1660e01b8152600401610aa291815260200190565b602060405180830381865afa158015610abf573d6000803e3d6000fd5b505050506040513d601f19601f82011682018060405250810190610ae391906112e0565b6001600160a01b0316145b610b505760405162461bcd60e51b815260206004820152602d60248201527f596f75206e656564206120766f74696e67204e465420746f20766f746520696e60448201526c103a3434b99039b2b9b9b4b7b760991b606482015260840161024a565b600381015460ff16610ba45760405162461bcd60e51b815260206004820152601c60248201527f566f74696e672073657373696f6e206973206e6f742061637469766500000000604482015260640161024a565b80600201544210610bf75760405162461bcd60e51b815260206004820152601860248201527f566f74696e672073657373696f6e2068617320656e6465640000000000000000604482015260640161024a565b33600090815260058201602052604090205460ff1615610c525760405162461bcd60e51b8152602060048201526016602482015275165bdd481a185d9948185b1c9958591e481d9bdd195960521b604482015260640161024a565b60048101548210610c995760405162461bcd60e51b8152602060048201526011602482015270496e76616c69642063616e64696461746560781b604482015260640161024a565b806004018281548110610cae57610cae611100565b600091825260208220600160029092020101805491610ccc836112b0565b9091555050336000818152600583016020908152604091829020805460ff191660011790558151868152908101859052908101919091527fd91ecafccf238642dccd41161308b3eebe62a12bc5819daf5164780c221ec95b9060600160405180910390a1505050565b600060208284031215610d4757600080fd5b5035919050565b6001600160a01b0381168114610d6357600080fd5b50565b600060208284031215610d7857600080fd5b8135610d8381610d4e565b9392505050565b6000815180845260005b81811015610db057602081850181015186830182015201610d94565b506000602082860101526020601f19601f83011685010191505092915050565b6000602082016020835280845180835260408501915060408160051b86010192506020860160005b82811015610e3d57603f198786030184528151805160408752610e1e6040880182610d8a565b6020928301519783019790975250938401939190910190600101610df8565b50929695505050505050565b60008060408385031215610e5c57600080fd5b823591506020830135610e6e81610d4e565b809150509250929050565b634e487b7160e01b600052604160045260246000fd5b604051601f8201601f1916810167ffffffffffffffff81118282101715610eb857610eb8610e79565b604052919050565b600082601f830112610ed157600080fd5b813567ffffffffffffffff811115610eeb57610eeb610e79565b610efe601f8201601f1916602001610e8f565b818152846020838601011115610f1357600080fd5b816020850160208301376000918101602001919091529392505050565b600080600060608486031215610f4557600080fd5b833567ffffffffffffffff811115610f5c57600080fd5b610f6886828701610ec0565b935050602084013567ffffffffffffffff811115610f8557600080fd5b8401601f81018613610f9657600080fd5b803567ffffffffffffffff811115610fb057610fb0610e79565b8060051b610fc060208201610e8f565b91825260208184018101929081019089841115610fdc57600080fd5b6020850192505b8383101561102357823567ffffffffffffffff81111561100257600080fd5b6110118b602083890101610ec0565b83525060209283019290910190610fe3565b96999698505050506040949094013593505050565b85815260a06020820152600061105160a0830187610d8a565b6040830195909552509115156060830152151560809091015292915050565b6000806040838503121561108357600080fd5b823561108e81610d4e565b946020939093013593505050565b600080604083850312156110af57600080fd5b50508035926020909101359150565b60208082526022908201527f4f6e6c792061646d696e2063616e20706572666f726d2074686973206163746960408201526137b760f11b606082015260800190565b634e487b7160e01b600052603260045260246000fd5b600181811c9082168061112a57607f821691505b60208210810361114a57634e487b7160e01b600052602260045260246000fd5b50919050565b601f82111561119a57806000526020600020601f840160051c810160208510156111775750805b601f840160051c820191505b818110156111975760008155600101611183565b50505b505050565b815167ffffffffffffffff8111156111b9576111b9610e79565b6111cd816111c78454611116565b84611150565b6020601f82116001811461120157600083156111e95750848201515b600019600385901b1c1916600184901b178455611197565b600084815260208120601f198516915b828110156112315787850151825560209485019460019092019101611211565b508482101561124f5786840151600019600387901b60f8161c191681555b50505050600190811b01905550565b634e487b7160e01b600052601160045260246000fd5b8082018082111561061a5761061a61125e565b8381526060602082015260006112a06060830185610d8a565b9050826040830152949350505050565b6000600182016112c2576112c261125e565b5060010190565b808202811582820484141761061a5761061a61125e565b6000602082840312156112f257600080fd5b8151610d8381610d4e56fea26469706673582212203f3e5879b9b784f337e4542864863f5af2c16d0e65cf4f07319539a93bf3b69e64736f6c634300081c0033",
  "linkReferences": {},
  "deployedLinkReferences": {}
}