{
  "_format": "hh-sol-artifact-1",
  "contractName": "VotingSystem",
  "sourceName": "contracts/Voting.sol",
  "abi": [
    {
      "inputs": [],
      "stateMutability": "nonpayable",
      "type": "constructor"
    },
    {
      "anonymous": false,
      "inputs": [
        {
          "indexed": false,
          "internalType": "address",
          "name": "newAdmin",
          "type": "address"
        }
      ],
      "name": "AdminSet",
      "type": "event"
    },
    {
      "anonymous": false,
      "inputs": [
        {
          "indexed": false,
          "internalType": "uint256",
          "name": "sessionId",
          "type": "uint256"
        }
      ],
      "name": "ResultsReleased",
      "type": "event"
    },
    {
      "anonymous": false,
      "inputs": [
        {
          "indexed": false,
          "internalType": "uint256",
          "name": "sessionId",
          "type": "uint256"
        },
        {
          "indexed": false,
          "internalType": "string",
          "name": "title",
          "type": "string"
        },
        {
          "indexed": false,
          "internalType": "uint256",
          "name": "endTime",
          "type": "uint256"
        }
      ],
      "name": "SessionCreated",
      "type": "event"
    },
    {
      "anonymous": false,
      "inputs": [
        {
          "indexed": false,
          "internalType": "uint256",
          "name": "sessionId",
          "type": "uint256"
        }
      ],
      "name": "SessionEnded",
      "type": "event"
    },
    {
      "anonymous": false,
      "inputs": [
        {
          "indexed": false,
          "internalType": "uint256",
          "name": "sessionId",
          "type": "uint256"
        },
        {
          "indexed": false,
          "internalType": "uint256",
          "name": "candidateIndex",
          "type": "uint256"
        },
        {
          "indexed": false,
          "internalType": "address",
          "name": "voter",
          "type": "address"
        }
      ],
      "name": "Voted",
      "type": "event"
    },
    {
      "inputs": [],
      "name": "admin",
      "outputs": [
        {
          "internalType": "address",
          "name": "",
          "type": "address"
        }
      ],
      "stateMutability": "view",
      "type": "function"
    },
    {
      "inputs": [
        {
          "internalType": "string",
          "name": "_title",
          "type": "string"
        },
        {
          "internalType": "string[]",
          "name": "candidateNames",
          "type": "string[]"
        },
        {
          "internalType": "uint256",
          "name": "durationInSeconds",
          "type": "uint256"
        }
      ],
      "name": "createSession",
      "outputs": [],
      "stateMutability": "nonpayable",
      "type": "function"
    },
    {
      "inputs": [
        {
          "internalType": "uint256",
          "name": "sessionId",
          "type": "uint256"
        }
      ],
      "name": "endSession",
      "outputs": [],
      "stateMutability": "nonpayable",
      "type": "function"
    },
    {
      "inputs": [
        {
          "internalType": "uint256",
          "name": "sessionId",
          "type": "uint256"
        }
      ],
      "name": "getCandidates",
      "outputs": [
        {
          "components": [
            {
              "internalType": "string",
              "name": "name",
              "type": "string"
            },
            {
              "internalType": "uint256",
              "name": "voteCount",
              "type": "uint256"
            }
          ],
          "internalType": "struct VotingSystem.Candidate[]",
          "name": "",
          "type": "tuple[]"
        }
      ],
      "stateMutability": "view",
      "type": "function"
    },
    {
      "inputs": [
        {
          "internalType": "uint256",
          "name": "sessionId",
          "type": "uint256"
        },
        {
          "internalType": "address",
          "name": "user",
          "type": "address"
        }
      ],
      "name": "hasVoted",
      "outputs": [
        {
          "internalType": "bool",
          "name": "",
          "type": "bool"
        }
      ],
      "stateMutability": "view",
      "type": "function"
    },
    {
      "inputs": [
        {
          "internalType": "uint256",
          "name": "sessionId",
          "type": "uint256"
        }
      ],
      "name": "releaseResults",
      "outputs": [],
      "stateMutability": "nonpayable",
      "type": "function"
    },
    {
      "inputs": [],
      "name": "sessionCounter",
      "outputs": [
        {
          "internalType": "uint256",
          "name": "",
          "type": "uint256"
        }
      ],
      "stateMutability": "view",
      "type": "function"
    },
    {
      "inputs": [
        {
          "internalType": "uint256",
          "name": "",
          "type": "uint256"
        }
      ],
      "name": "sessions",
      "outputs": [
        {
          "internalType": "uint256",
          "name": "id",
          "type": "uint256"
        },
        {
          "internalType": "string",
          "name": "title",
          "type": "string"
        },
        {
          "internalType": "uint256",
          "name": "endTime",
          "type": "uint256"
        },
        {
          "internalType": "bool",
          "name": "isActive",
          "type": "bool"
        },
        {
          "internalType": "bool",
          "name": "resultsReleased",
          "type": "bool"
        }
      ],
      "stateMutability": "view",
      "type": "function"
    },
    {
      "inputs": [
        {
          "internalType": "address",
          "name": "_admin",
          "type": "address"
        }
      ],
      "name": "setAdmin",
      "outputs": [],
      "stateMutability": "nonpayable",
      "type": "function"
    },
    {
      "inputs": [
        {
          "internalType": "uint256",
          "name": "sessionId",
          "type": "uint256"
        },
        {
          "internalType": "uint256",
          "name": "candidateIndex",
          "type": "uint256"
        }
      ],
      "name": "vote",
      "outputs": [],
      "stateMutability": "nonpayable",
      "type": "function"
    }
  ],
  "bytecode": "0x6080604052348015600f57600080fd5b50600080546001600160a01b0319169055610f908061002f6000396000f3fe608060405234801561001057600080fd5b506004361061009e5760003560e01c806374ea42531161006657806374ea42531461012a57806383c4b7a31461013d578063b384abef14610161578063cc64e2af14610174578063f851a4401461018b57600080fd5b806326cc5583146100a35780633bafd9a0146100b85780633e39a7a5146100cb57806343859632146100f4578063704b6c0214610117575b600080fd5b6100b66100b13660046109f4565b6101b6565b005b6100b66100c63660046109f4565b61028d565b6100de6100d93660046109f4565b610362565b6040516100eb9190610a53565b60405180910390f35b610107610102366004610ae8565b6104e0565b60405190151581526020016100eb565b6100b6610125366004610b14565b610510565b6100b6610138366004610bed565b6105b1565b61015061014b3660046109f4565b610743565b6040516100eb959493929190610cf5565b6100b661016f366004610d2d565b610801565b61017d60015481565b6040519081526020016100eb565b60005461019e906001600160a01b031681565b6040516001600160a01b0390911681526020016100eb565b6000546001600160a01b031633146101e95760405162461bcd60e51b81526004016101e090610d4f565b60405180910390fd5b6000818152600260205260409020600381015460ff166102435760405162461bcd60e51b815260206004820152601560248201527414d95cdcda5bdb88185b1c9958591e48195b991959605a1b60448201526064016101e0565b60038101805460ff191690554260028201556040518281527f6fec84c120bd2f6ca3672e03149381cb6bd1bf38d8442f598e8fa9820a53991e906020015b60405180910390a15050565b6000546001600160a01b031633146102b75760405162461bcd60e51b81526004016101e090610d4f565b60008181526002602052604090206003810154610100900460ff161561031f5760405162461bcd60e51b815260206004820152601860248201527f526573756c747320616c72656164792072656c6561736564000000000000000060448201526064016101e0565b60038101805461ff0019166101001790556040517f610cc35e8bc32442361a4a35f56e262bdc568a35f1a955a50bd61b05714ce82d906102819084815260200190565b600081815260026020526040812060048101546060929067ffffffffffffffff81111561039157610391610b36565b6040519080825280602002602001820160405280156103d757816020015b6040805180820190915260608152600060208201528152602001906001900390816103af5790505b50905060005b60048301548110156104d8578260040181815481106103fe576103fe610d91565b906000526020600020906002020160405180604001604052908160008201805461042790610da7565b80601f016020809104026020016040519081016040528092919081815260200182805461045390610da7565b80156104a05780601f10610475576101008083540402835291602001916104a0565b820191906000526020600020905b81548152906001019060200180831161048357829003601f168201915b505050505081526020016001820154815250508282815181106104c5576104c5610d91565b60209081029190910101526001016103dd565b509392505050565b60008281526002602090815260408083206001600160a01b038516845260050190915290205460ff165b92915050565b6000546001600160a01b03161561055d5760405162461bcd60e51b815260206004820152601160248201527010591b5a5b88185b1c9958591e481cd95d607a1b60448201526064016101e0565b600080546001600160a01b0319166001600160a01b0383169081179091556040519081527f8fe72c3e0020beb3234e76ae6676fa576fbfcae600af1c4fea44784cf0db329c9060200160405180910390a150565b6000546001600160a01b031633146105db5760405162461bcd60e51b81526004016101e090610d4f565b600082511161062c5760405162461bcd60e51b815260206004820152601b60248201527f4e656564206174206c65617374206f6e652063616e646964617465000000000060448201526064016101e0565b60018054600081815260026020526040902090815590810161064e8582610e30565b506106598242610f05565b600282015560038101805460ff1916600117905560005b83518110156106e65781600401604051806040016040528086848151811061069a5761069a610d91565b602090810291909101810151825260009181018290528354600181018555938252902081519192600202019081906106d29082610e30565b506020919091015160019182015501610670565b507fbaaf3e7e7220f3f189df779cc40f886caf966b5143cbe122de9181a26a68152060015485836002015460405161072093929190610f18565b60405180910390a16001805490600061073883610f41565b919050555050505050565b6002602052600090815260409020805460018201805491929161076590610da7565b80601f016020809104026020016040519081016040528092919081815260200182805461079190610da7565b80156107de5780601f106107b3576101008083540402835291602001916107de565b820191906000526020600020905b8154815290600101906020018083116107c157829003601f168201915b50505050600283015460039093015491929160ff80821692506101009091041685565b6000828152600260205260409020600381015460ff166108635760405162461bcd60e51b815260206004820152601c60248201527f566f74696e672073657373696f6e206973206e6f74206163746976650000000060448201526064016101e0565b806002015442106108b65760405162461bcd60e51b815260206004820152601860248201527f566f74696e672073657373696f6e2068617320656e646564000000000000000060448201526064016101e0565b33600090815260058201602052604090205460ff16156109115760405162461bcd60e51b8152602060048201526016602482015275165bdd481a185d9948185b1c9958591e481d9bdd195960521b60448201526064016101e0565b600481015482106109585760405162461bcd60e51b8152602060048201526011602482015270496e76616c69642063616e64696461746560781b60448201526064016101e0565b80600401828154811061096d5761096d610d91565b60009182526020822060016002909202010180549161098b83610f41565b9091555050336000818152600583016020908152604091829020805460ff191660011790558151868152908101859052908101919091527fd91ecafccf238642dccd41161308b3eebe62a12bc5819daf5164780c221ec95b9060600160405180910390a1505050565b600060208284031215610a0657600080fd5b5035919050565b6000815180845260005b81811015610a3357602081850181015186830182015201610a17565b506000602082860101526020601f19601f83011685010191505092915050565b6000602082016020835280845180835260408501915060408160051b86010192506020860160005b82811015610ac057603f198786030184528151805160408752610aa16040880182610a0d565b6020928301519783019790975250938401939190910190600101610a7b565b50929695505050505050565b80356001600160a01b0381168114610ae357600080fd5b919050565b60008060408385031215610afb57600080fd5b82359150610b0b60208401610acc565b90509250929050565b600060208284031215610b2657600080fd5b610b2f82610acc565b9392505050565b634e487b7160e01b600052604160045260246000fd5b604051601f8201601f1916810167ffffffffffffffff81118282101715610b7557610b75610b36565b604052919050565b600082601f830112610b8e57600080fd5b813567ffffffffffffffff811115610ba857610ba8610b36565b610bbb601f8201601f1916602001610b4c565b818152846020838601011115610bd057600080fd5b816020850160208301376000918101602001919091529392505050565b600080600060608486031215610c0257600080fd5b833567ffffffffffffffff811115610c1957600080fd5b610c2586828701610b7d565b935050602084013567ffffffffffffffff811115610c4257600080fd5b8401601f81018613610c5357600080fd5b803567ffffffffffffffff811115610c6d57610c6d610b36565b8060051b610c7d60208201610b4c565b91825260208184018101929081019089841115610c9957600080fd5b6020850192505b83831015610ce057823567ffffffffffffffff811115610cbf57600080fd5b610cce8b602083890101610b7d565b83525060209283019290910190610ca0565b96999698505050506040949094013593505050565b85815260a060208201526000610d0e60a0830187610a0d565b6040830195909552509115156060830152151560809091015292915050565b60008060408385031215610d4057600080fd5b50508035926020909101359150565b60208082526022908201527f4f6e6c792061646d696e2063616e20706572666f726d2074686973206163746960408201526137b760f11b606082015260800190565b634e487b7160e01b600052603260045260246000fd5b600181811c90821680610dbb57607f821691505b602082108103610ddb57634e487b7160e01b600052602260045260246000fd5b50919050565b601f821115610e2b57806000526020600020601f840160051c81016020851015610e085750805b601f840160051c820191505b81811015610e285760008155600101610e14565b50505b505050565b815167ffffffffffffffff811115610e4a57610e4a610b36565b610e5e81610e588454610da7565b84610de1565b6020601f821160018114610e925760008315610e7a5750848201515b600019600385901b1c1916600184901b178455610e28565b600084815260208120601f198516915b82811015610ec25787850151825560209485019460019092019101610ea2565b5084821015610ee05786840151600019600387901b60f8161c191681555b50505050600190811b01905550565b634e487b7160e01b600052601160045260246000fd5b8082018082111561050a5761050a610eef565b838152606060208201526000610f316060830185610a0d565b9050826040830152949350505050565b600060018201610f5357610f53610eef565b506001019056fea2646970667358221220aa99fcb89b18e6fa04e489c22d3aea62295032b6c306a6f525c124611822b36564736f6c634300081c0033",
  "linkReferences": {},
  "deployedLinkReferences": {}
}